{
  "contractName": "bLottery",
  "abi": [
    {
      "constant": true,
      "inputs": [
        {
          "name": "",
          "type": "uint256"
        }
      ],
      "name": "allOwners",
      "outputs": [
        {
          "name": "",
          "type": "address"
        }
      ],
      "payable": false,
      "stateMutability": "view",
      "type": "function"
    },
    {
      "constant": true,
      "inputs": [
        {
          "name": "",
          "type": "address"
        }
      ],
      "name": "ticketOwners",
      "outputs": [
        {
          "name": "",
          "type": "uint256"
        }
      ],
      "payable": false,
      "stateMutability": "view",
      "type": "function"
    },
    {
      "constant": true,
      "inputs": [],
      "name": "willLast",
      "outputs": [
        {
          "name": "",
          "type": "uint256"
        }
      ],
      "payable": false,
      "stateMutability": "view",
      "type": "function"
    },
    {
      "constant": true,
      "inputs": [],
      "name": "timeStarted",
      "outputs": [
        {
          "name": "",
          "type": "uint256"
        }
      ],
      "payable": false,
      "stateMutability": "view",
      "type": "function"
    },
    {
      "constant": true,
      "inputs": [],
      "name": "ticketsBought",
      "outputs": [
        {
          "name": "",
          "type": "uint256"
        }
      ],
      "payable": false,
      "stateMutability": "view",
      "type": "function"
    },
    {
      "constant": true,
      "inputs": [],
      "name": "totalWon",
      "outputs": [
        {
          "name": "",
          "type": "uint256"
        }
      ],
      "payable": false,
      "stateMutability": "view",
      "type": "function"
    },
    {
      "constant": true,
      "inputs": [],
      "name": "lotteryOver",
      "outputs": [
        {
          "name": "",
          "type": "bool"
        }
      ],
      "payable": false,
      "stateMutability": "view",
      "type": "function"
    },
    {
      "constant": true,
      "inputs": [
        {
          "name": "",
          "type": "uint256"
        }
      ],
      "name": "pastWinners",
      "outputs": [
        {
          "name": "",
          "type": "address"
        }
      ],
      "payable": false,
      "stateMutability": "view",
      "type": "function"
    },
    {
      "constant": true,
      "inputs": [],
      "name": "lotteryTotal",
      "outputs": [
        {
          "name": "",
          "type": "uint256"
        }
      ],
      "payable": false,
      "stateMutability": "view",
      "type": "function"
    },
    {
      "constant": true,
      "inputs": [],
      "name": "lastWinner",
      "outputs": [
        {
          "name": "",
          "type": "address"
        }
      ],
      "payable": false,
      "stateMutability": "view",
      "type": "function"
    },
    {
      "inputs": [],
      "payable": false,
      "stateMutability": "nonpayable",
      "type": "constructor"
    },
    {
      "anonymous": false,
      "inputs": [
        {
          "indexed": false,
          "name": "to",
          "type": "address"
        },
        {
          "indexed": false,
          "name": "amount",
          "type": "uint256"
        }
      ],
      "name": "TicketSold",
      "type": "event"
    },
    {
      "anonymous": false,
      "inputs": [
        {
          "indexed": false,
          "name": "to",
          "type": "address"
        },
        {
          "indexed": false,
          "name": "amount",
          "type": "uint256"
        }
      ],
      "name": "PayWinner",
      "type": "event"
    },
    {
      "anonymous": false,
      "inputs": [],
      "name": "Reset",
      "type": "event"
    },
    {
      "anonymous": false,
      "inputs": [
        {
          "indexed": false,
          "name": "message",
          "type": "string"
        }
      ],
      "name": "SetMessage",
      "type": "event"
    },
    {
      "constant": false,
      "inputs": [],
      "name": "sellTickets",
      "outputs": [
        {
          "name": "success",
          "type": "bool"
        }
      ],
      "payable": true,
      "stateMutability": "payable",
      "type": "function"
    },
    {
      "constant": false,
      "inputs": [],
      "name": "reboot",
      "outputs": [
        {
          "name": "success",
          "type": "bool"
        }
      ],
      "payable": false,
      "stateMutability": "nonpayable",
      "type": "function"
    },
    {
      "constant": false,
      "inputs": [],
      "name": "selectWinner",
      "outputs": [
        {
          "name": "winningTicket",
          "type": "uint256"
        }
      ],
      "payable": false,
      "stateMutability": "nonpayable",
      "type": "function"
    },
    {
      "constant": false,
      "inputs": [
        {
          "name": "ownerAddress",
          "type": "address"
        }
      ],
      "name": "getOwnerBalance",
      "outputs": [
        {
          "name": "balance",
          "type": "uint256"
        }
      ],
      "payable": false,
      "stateMutability": "nonpayable",
      "type": "function"
    },
    {
      "constant": false,
      "inputs": [],
      "name": "getBalance",
      "outputs": [
        {
          "name": "",
          "type": "uint256"
        }
      ],
      "payable": false,
      "stateMutability": "nonpayable",
      "type": "function"
    },
    {
      "constant": false,
      "inputs": [
        {
          "name": "message",
          "type": "string"
        }
      ],
      "name": "setmessage",
      "outputs": [
        {
          "name": "success",
          "type": "bool"
        }
      ],
      "payable": false,
      "stateMutability": "nonpayable",
      "type": "function"
    },
    {
      "constant": false,
      "inputs": [],
      "name": "timeLeft",
      "outputs": [
        {
          "name": "",
          "type": "uint256"
        }
      ],
      "payable": false,
      "stateMutability": "nonpayable",
      "type": "function"
    }
  ],
  "bytecode": "0x608060405234801561001057600080fd5b50600060048190555042600781905550600a600881905550610c34806100376000396000f3fe6080604052600436106100f1576000357c0100000000000000000000000000000000000000000000000000000000900463ffffffff16806307a20a9d146100f657806312065fe0146101d65780631300a6d1146102015780631516db091461022c5780631f6ea787146102a757806331221c9f1461030c57806333a99e0414610337578063638f6575146103625780637fcf440a1461038d57806391c62924146103f25780639912815c14610414578063af4a047a14610443578063b3ff277d1461046e578063c5bc60f414610499578063e499e79c146104c8578063f94a28ff14610543578063fe1881841461056e575b600080fd5b34801561010257600080fd5b506101bc6004803603602081101561011957600080fd5b810190808035906020019064010000000081111561013657600080fd5b82018360208201111561014857600080fd5b8035906020019184600183028401116401000000008311171561016a57600080fd5b91908080601f016020809104026020016040519081016040528093929190818152602001838380828437600081840152601f19601f8201169050808301925050505050505091929192905050506105c5565b604051808215151515815260200191505060405180910390f35b3480156101e257600080fd5b506101eb610668565b6040518082815260200191505060405180910390f35b34801561020d57600080fd5b50610216610687565b6040518082815260200191505060405180910390f35b34801561023857600080fd5b506102656004803603602081101561024f57600080fd5b8101908080359060200190929190505050610691565b604051808273ffffffffffffffffffffffffffffffffffffffff1673ffffffffffffffffffffffffffffffffffffffff16815260200191505060405180910390f35b3480156102b357600080fd5b506102f6600480360360208110156102ca57600080fd5b81019080803573ffffffffffffffffffffffffffffffffffffffff1690602001909291905050506106cf565b6040518082815260200191505060405180910390f35b34801561031857600080fd5b506103216106e7565b6040518082815260200191505060405180910390f35b34801561034357600080fd5b5061034c6106ed565b6040518082815260200191505060405180910390f35b34801561036e57600080fd5b506103776107d6565b6040518082815260200191505060405180910390f35b34801561039957600080fd5b506103dc600480360360208110156103b057600080fd5b81019080803573ffffffffffffffffffffffffffffffffffffffff1690602001909291905050506107dc565b6040518082815260200191505060405180910390f35b6103fa610824565b604051808215151515815260200191505060405180910390f35b34801561042057600080fd5b50610429610a03565b604051808215151515815260200191505060405180910390f35b34801561044f57600080fd5b50610458610a76565b6040518082815260200191505060405180910390f35b34801561047a57600080fd5b50610483610a7c565b6040518082815260200191505060405180910390f35b3480156104a557600080fd5b506104ae610a82565b604051808215151515815260200191505060405180910390f35b3480156104d457600080fd5b50610501600480360360208110156104eb57600080fd5b8101908080359060200190929190505050610a95565b604051808273ffffffffffffffffffffffffffffffffffffffff1673ffffffffffffffffffffffffffffffffffffffff16815260200191505060405180910390f35b34801561054f57600080fd5b50610558610ad3565b6040518082815260200191505060405180910390f35b34801561057a57600080fd5b50610583610ad9565b604051808273ffffffffffffffffffffffffffffffffffffffff1673ffffffffffffffffffffffffffffffffffffffff16815260200191505060405180910390f35b60007f88fabb3a5fb12238a642b855bc1b1693ac0d6443ad7fc7c035e322c5b6cb587f826040518080602001828103825283818151815260200191508051906020019080838360005b8381101561062957808201518184015260208101905061060e565b50505050905090810190601f1680156106565780820380516001836020036101000a031916815260200191505b509250505060405180910390a1919050565b60003073ffffffffffffffffffffffffffffffffffffffff1631905090565b6000600754905090565b6001818154811015156106a057fe5b906000526020600020016000915054906101000a900473ffffffffffffffffffffffffffffffffffffffff1681565b60006020528060005260406000206000915090505481565b60085481565b6000600854600754014211151561070357600080fd5b6000600160075460014303406001900481151561071c57fe5b06019050600060018281548110151561073157fe5b9060005260206000200160009054906101000a900473ffffffffffffffffffffffffffffffffffffffff16905060028190806001815401808255809150509060018203906000526020600020016000909192909190916101000a81548173ffffffffffffffffffffffffffffffffffffffff021916908373ffffffffffffffffffffffffffffffffffffffff160217905550506107cd81610aff565b50819250505090565b60075481565b60008060008373ffffffffffffffffffffffffffffffffffffffff1673ffffffffffffffffffffffffffffffffffffffff168152602001908152602001600020549050919050565b6000600854600754014210151561083a57600080fd5b66038d7ea4c680003481151561084c57fe5b046000803373ffffffffffffffffffffffffffffffffffffffff1673ffffffffffffffffffffffffffffffffffffffff168152602001908152602001600020819055506000803373ffffffffffffffffffffffffffffffffffffffff1673ffffffffffffffffffffffffffffffffffffffff1681526020019081526020016000205460046000828254019250508190555060013390806001815401808255809150509060018203906000526020600020016000909192909190916101000a81548173ffffffffffffffffffffffffffffffffffffffff021916908373ffffffffffffffffffffffffffffffffffffffff16021790555050346005600082825401925050819055507f8ef92257fbc070823c8bb4051ff3a58b831946d893fbb1bfd9bc77b87ff77d09336000803373ffffffffffffffffffffffffffffffffffffffff1673ffffffffffffffffffffffffffffffffffffffff16815260200190815260200160002054604051808373ffffffffffffffffffffffffffffffffffffffff1673ffffffffffffffffffffffffffffffffffffffff1681526020018281526020019250505060405180910390a16001905090565b60006008546007540142111515610a1957600080fd5b6000600960006101000a81548160ff0219169083151502179055504260078190555060786008819055507f6423db340205c829eeb91151b1c5d1dc6d7a2b8708b1621494e89ba90c87081e60405160405180910390a16001905090565b60045481565b60065481565b600960009054906101000a900460ff1681565b600281815481101515610aa457fe5b906000526020600020016000915054906101000a900473ffffffffffffffffffffffffffffffffffffffff1681565b60055481565b600360009054906101000a900473ffffffffffffffffffffffffffffffffffffffff1681565b60006008546007540142101515610b1557600080fd5b8173ffffffffffffffffffffffffffffffffffffffff166108fc6005549081150290604051600060405180830381858888f19350505050158015610b5d573d6000803e3d6000fd5b507faffd7eb38f11b70f6657a98f30dc78203c499888d35801fbce07a6d5c944f94c82600554604051808373ffffffffffffffffffffffffffffffffffffffff1673ffffffffffffffffffffffffffffffffffffffff1681526020018281526020019250505060405180910390a160006005819055507f6423db340205c829eeb91151b1c5d1dc6d7a2b8708b1621494e89ba90c87081e60405160405180910390a16001905091905056fea165627a7a72305820810ca1869f7409754f0cc1442b9c9a6a60d32180d7ad22af440d7bc8efba4ce90029",
  "source": "pragma solidity ^0.5.0;\n\ncontract bLottery {\n    \n    struct ticket {\n        address ownerAddress;\n        string ticketNo;\n    }\n        \n    mapping (address => uint) public ticketOwners;\n    address payable[] public allOwners;\n    address[] public pastWinners;\n    address public lastWinner;\n    uint public ticketsBought;\n    uint public lotteryTotal;\n    uint public totalWon;\n    uint public timeStarted;\n    uint public willLast;\n    bool public lotteryOver;\n    \n    event TicketSold(address to, uint amount);\n    event PayWinner(address payable to, uint amount);\n    event Reset();\n    event SetMessage(string message);\n    \n    modifier currentLottery() {\n        require(now < timeStarted + willLast);\n        _;\n    }\n    modifier lotteryDone() {\n        require(now > timeStarted + willLast);\n        _;\n    }\n\n    constructor() public {\n        ticketsBought = 0;\n        timeStarted = now;\n        willLast = 10 seconds;\n    }\n\n    function sellTickets() external payable currentLottery returns (bool success) {\n        ticketOwners[msg.sender] = msg.value / (10**15);\n        ticketsBought += ticketOwners[msg.sender];\n        allOwners.push(msg.sender);\n        lotteryTotal += msg.value;\n        emit TicketSold(msg.sender, ticketOwners[msg.sender]);\n        return true;\n    }\n\n    function reboot() public lotteryDone returns (bool success) {\n        lotteryOver = false;\n        timeStarted = now;\n        willLast = 2 minutes;\n        emit Reset();\n        return true;\n    }\n\n    function payWinner(address payable winner) internal currentLottery returns (bool success) {\n        winner.transfer(lotteryTotal);\n        emit PayWinner(winner, lotteryTotal);\n        lotteryTotal = 0;\n        emit Reset();\n        return true;\n    }\n\n    function selectWinner() public lotteryDone() returns (uint winningTicket) {\n        uint random = uint(blockhash(block.number - 1)) % timeStarted + 1;\n        address payable lastWinner = allOwners[random];\n        pastWinners.push(lastWinner);\n        payWinner(lastWinner);\n        return random;\n    }\n\n    function getOwnerBalance(address ownerAddress) public returns (uint balance) {\n        return ticketOwners[ownerAddress];\n    }\n\n    function getBalance() public returns (uint) {\n        return address(this).balance;\n    }\n\t\n    function setmessage(string memory message) public returns (bool success) {\n        emit SetMessage(message);\n    }\n\n    function timeLeft() public returns (uint) {\n        return timeStarted;\n    }\n}",
  "sourcePath": "/home/travis/projects/Ethereum/workspace/BroncoBlocks/contracts/bLottery.sol",
  "compiler": {
    "name": "solc",
    "version": "0.5.0+commit.1d4f565a.Emscripten.clang"
  },
  "schemaVersion": "3.0.1",
  "updatedAt": "2019-01-23T03:37:22.101Z",
  "devdoc": {
    "methods": {}
  },
  "userdoc": {
    "methods": {}
  }
}